:100000000C9461000C9473000C9473000C947300B6
:100010000C9473000C9473000C9473000C94730094
:100020000C9473000C9473000C9473000C94730084
:100030000C9473000C9473000C9473000C94730074
:100040000C944D010C9473000C9473000C94730089
:100050000C9473000C9473000C9473000C94730054
:100060000C9473000C94730000000000240027001F
:100070002A0000000000250028002B0000000008D6
:10008000000201000003040700000000000000005F
:1000900000000000230026002900040404040404D6
:1000A0000404020202020202030303030303010227
:1000B00004081020408001020408102001020408F6
:1000C000102011241FBECFEFD8E0DEBFCDBF21E04E
:1000D000A0E0B1E001C01D92A930B207E1F70E9493
:1000E000DC010C940B040C94000090E0FC01E4583B
:1000F000FF4F2491FC01E255FF4F3491FC01E6567D
:10010000FF4FE491EE23C9F0222339F0233001F1AF
:10011000A8F4213019F1223029F1F0E0EE0FFF1F91
:10012000EE58FF4FA591B4918FB7F894EC916111FF
:1001300026C030953E233C938FBF08952730A9F009
:100140002830C9F0243049F7809180008F7D03C0AA
:10015000809180008F7780938000DFCF84B58F7788
:1001600084BDDBCF84B58F7DFBCF8091B0008F77CE
:100170008093B000D2CF8091B0008F7DF9CF3E2B1D
:10018000DACFCF93DF9390E0FC01E255FF4F24914B
:1001900086569F4FFC0184918823D1F090E0880F10
:1001A000991FFC01E859FF4FA591B491FC01EE584D
:1001B000FF4FC591D49161110EC09FB7F8948C91F7
:1001C000E22FE0958E238C932881E223E8839FBF62
:1001D000DF91CF9108958FB7F894EC91E22BEC93D7
:1001E0008FBFF6CF3FB7F89480910501909106013B
:1001F000A0910701B091080126B5A89B05C02F3F2B
:1002000019F00196A11DB11D3FBFBA2FA92F982F3C
:100210008827BC01CD01620F711D811D911D42E037
:10022000660F771F881F991F4A95D1F708958F92FF
:100230009F92AF92BF92CF92DF92EF92FF920E9475
:10024000F2004B015C0188EEC82E83E0D82EE12C31
:10025000F12C0E94F200681979098A099B09683E0D
:10026000734081059105A8F321E0C21AD108E10885
:10027000F10888EE880E83E0981EA11CB11CC11401
:10028000D104E104F10429F7FF90EF90DF90CF90C3
:10029000BF90AF909F908F9008951F920F920FB6CE
:1002A0000F9211242F933F938F939F93AF93BF93FC
:1002B0008091010190910201A0910301B09104018C
:1002C0003091000123E0230F2D3758F50196A11D31
:1002D000B11D209300018093010190930201A0932E
:1002E0000301B09304018091050190910601A09152
:1002F0000701B09108010196A11DB11D8093050170
:1003000090930601A0930701B0930801BF91AF91AC
:100310009F918F913F912F910F900FBE0F901F9043
:10032000189526E8230F0296A11DB11DD2CFCF92BA
:10033000DF92EF92FF920F931F93E82FF92F05C0E2
:10034000015011092109310961F190819623941717
:10035000B9F305C0015011092109310911F190814A
:1003600096239413F7CFC12CD12CE12CF12C0AC089
:100370008FEFC81AD80AE80AF80A0C151D052E05D1
:100380003F0579F080818623841791F36C2D7D2DB4
:100390008E2D9F2D1F910F91FF90EF90DF90CF90AA
:1003A000089560E070E080E090E01F910F91FF9071
:1003B000EF90DF90CF900895789484B5826084BDEB
:1003C00084B5816084BD85B5826085BD85B5816059
:1003D00085BD80916E00816080936E0010928100D7
:1003E0008091810082608093810080918100816092
:1003F0008093810080918000816080938000809153
:10040000B10084608093B1008091B00081608093DE
:10041000B00080917A00846080937A0080917A00A5
:10042000826080937A0080917A00816080937A0064
:1004300080917A00806880937A001092C10061E018
:1004400083E00E94C10060E082E00E94C10061E0A0
:100450008CE00E94C100C3E0D0E093E2E92EF12CD1
:1004600020EB822E20E0922E3CE9C32E30E0D32EEA
:1004700044E1442E512C612C712C50E0A52E50E00B
:10048000B52E60E083E00E947500CE010197F1F780
:1004900061E083E00E947500C7010197F1F760E019
:1004A00083E00E947500F4016491F6018491E82FC5
:1004B000F0E0EE0FFF1FE057FF4F8591949100E4AD
:1004C00012E42FE030E0462F0E949701611571057C
:1004D0008105910529F06F5F7F4F8F4F9F4F9F7070
:1004E000A30192010E94CA03CA01B9010E943E03FE
:1004F0002DEC3CEC48EE51E40E9494020E9406036D
:100500006B3071058105910568F461E08CE00E9413
:1005100075000E941701A114B10409F4B2CF0E9422
:100520000000AFCF60E0F2CF0E94A8020C949003CD
:100530000E94890358F00E94820340F029F45F3F33
:1005400029F00C94790351110C94C4030C947F038B
:100550000E94A10368F39923B1F3552391F3951BEE
:10056000550BBB27AA2762177307840738F09F5FD4
:100570005F4F220F331F441FAA1FA9F335D00E2E41
:100580003AF0E0E832D091505040E695001CCAF7AE
:100590002BD0FE2F29D0660F771F881FBB1F261771
:1005A00037074807AB07B0E809F0BB0B802DBF0148
:1005B000FF2793585F4F3AF09E3F510578F00C9417
:1005C00079030C94C4035F3FE4F3983ED4F386951B
:1005D00077956795B795F7959F5FC9F7880F911D38
:1005E0009695879597F90895E1E0660F771F881F24
:1005F000BB1F621773078407BA0720F0621B730BD7
:10060000840BBA0BEE1F88F7E09508950E940D0346
:100610006894B1110C94C40308950E94A90388F052
:100620009F5798F0B92F9927B751B0F0E1F0660FB6
:10063000771F881F991F1AF0BA95C9F714C0B130F7
:1006400091F00E94C303B1E008950C94C303672F97
:10065000782F8827B85F39F0B93FCCF38695779526
:100660006795B395D9F73EF490958095709561950F
:100670007F4F8F4F9F4F0895E89409C097FB3EF43A
:1006800090958095709561957F4F8F4F9F4F9923DF
:10069000A9F0F92F96E9BB279395F695879577955D
:1006A0006795B795F111F8CFFAF4BB0F11F460FF1D
:1006B0001BC06F5F7F4F8F4F9F4F16C0882311F075
:1006C00096E911C0772321F09EE8872F762F05C089
:1006D000662371F096E8862F70E060E02AF09A9524
:1006E000660F771F881FDAF7880F9695879597F919
:1006F000089597F99F6780E870E060E008959FEFA4
:1007000080EC089500240A941616170618060906A8
:10071000089500240A941216130614060506089577
:10072000092E0394000C11F4882352F0BB0F40F4FF
:10073000BF2B11F460FF04C06F5F7F4F8F4F9F4F3F
:10074000089557FD9058440F551F59F05F3F71F0C1
:100750004795880F97FB991F61F09F3F79F0879528
:100760000895121613061406551FF2CF4695F1DFB1
:1007700008C0161617061806991FF1CF8695710541
:10078000610508940895E894BB2766277727CB0175
:1007900097F90895052E97FB1EF400940E94E1033B
:1007A00057FD07D00E94E90307FC03D04EF40C94D8
:1007B000E10350954095309521953F4F4F4F5F4F46
:1007C000089590958095709561957F4F8F4F9F4FBD
:1007D0000895A1E21A2EAA1BBB1BFD010DC0AA1F82
:1007E000BB1FEE1FFF1FA217B307E407F50720F09A
:1007F000A21BB30BE40BF50B661F771F881F991F15
:100800001A9469F760957095809590959B01AC015D
:0A081000BD01CF010895F894FFCF59
:00000001FF
